package com.example.fixparsing;

public class FixMessage {
    public static final String NEW_ORDER_SINGLE = "8=FIX.4.4\0029=100\00235=D\00211=12345\00240=1\00254=1\00238=5000\00260=2003061501:14:49\00210=127";

    final String logon = "8=FIX.4.2\0029=73\00235=A\00234=1\00249=CLIENT\00252=20181119-10:42:48.768\00256=SERVER\00298=0\002108=30\002141=Y\00210=208";
    final String newOrder1 = "8=FIX.4.2\0029=251\00235=D\00249=AFUNDMGR\00256=ABROKER\00234=2\00252=20030615-01:14:49\002" +
            "11=12345\0021=111111\00263=0\00264=20030621\00221=3\002110=1000\002111=50000\00255=IBM\00248=459200101\00222=1" +
            "\00254=1\00260=2003061501:14:49\00238=5000\00240=1\00244=15.75\00215=USD\00259=0\00210=127";
    final String newOrderSingle = NEW_ORDER_SINGLE;
    final String testOrder = "123\002123";
}
